{
  "contractName": "Escrow",
  "abi": [
    {
      "constant": true,
      "inputs": [],
      "name": "custodian",
      "outputs": [
        {
          "name": "",
          "type": "address"
        }
      ],
      "payable": false,
      "stateMutability": "view",
      "type": "function"
    },
    {
      "constant": false,
      "inputs": [],
      "name": "renounceCustody",
      "outputs": [],
      "payable": false,
      "stateMutability": "nonpayable",
      "type": "function"
    },
    {
      "constant": false,
      "inputs": [
        {
          "name": "_newCustodian",
          "type": "address"
        }
      ],
      "name": "transferCustody",
      "outputs": [],
      "payable": false,
      "stateMutability": "nonpayable",
      "type": "function"
    },
    {
      "inputs": [
        {
          "name": "_token",
          "type": "address"
        },
        {
          "name": "_custodian",
          "type": "address"
        }
      ],
      "payable": false,
      "stateMutability": "nonpayable",
      "type": "constructor"
    },
    {
      "anonymous": false,
      "inputs": [
        {
          "indexed": true,
          "name": "previousCustodian",
          "type": "address"
        }
      ],
      "name": "CustodyRenounced",
      "type": "event"
    },
    {
      "anonymous": false,
      "inputs": [
        {
          "indexed": true,
          "name": "previousCustodian",
          "type": "address"
        },
        {
          "indexed": true,
          "name": "newCustodian",
          "type": "address"
        }
      ],
      "name": "CustodyTransferred",
      "type": "event"
    },
    {
      "constant": false,
      "inputs": [
        {
          "name": "_contract",
          "type": "address"
        },
        {
          "name": "_payer",
          "type": "address"
        },
        {
          "name": "_payee",
          "type": "address"
        },
        {
          "name": "_amount",
          "type": "uint256"
        },
        {
          "name": "_expiry",
          "type": "uint256"
        }
      ],
      "name": "createAgreement",
      "outputs": [],
      "payable": false,
      "stateMutability": "nonpayable",
      "type": "function"
    },
    {
      "constant": false,
      "inputs": [
        {
          "name": "_contract",
          "type": "address"
        }
      ],
      "name": "makeRedeemable",
      "outputs": [],
      "payable": false,
      "stateMutability": "nonpayable",
      "type": "function"
    },
    {
      "constant": false,
      "inputs": [
        {
          "name": "_contract",
          "type": "address"
        }
      ],
      "name": "redeem",
      "outputs": [],
      "payable": false,
      "stateMutability": "nonpayable",
      "type": "function"
    }
  ],
  "bytecode": "0x608060405234801561001057600080fd5b5060405160408061100e833981018060405281019080805190602001909291908051906020019092919050505080806000806101000a81548173ffffffffffffffffffffffffffffffffffffffff021916908373ffffffffffffffffffffffffffffffffffffffff1602179055505060008173ffffffffffffffffffffffffffffffffffffffff1614151515610134576040517f08c379a00000000000000000000000000000000000000000000000000000000081526004018080602001828103825260218152602001807f63616e206e6f742061737369676e65642030783020617320637573746f64696181526020017f6e0000000000000000000000000000000000000000000000000000000000000081525060400191505060405180910390fd5b81600160006101000a81548173ffffffffffffffffffffffffffffffffffffffff021916908373ffffffffffffffffffffffffffffffffffffffff1602179055505050610e88806101866000396000f300608060405260043610610078576000357c0100000000000000000000000000000000000000000000000000000000900463ffffffff16806327ffb4061461007d578063375b74c31461011457806395a2251f1461016b578063c05e824f146101ae578063cdd8dd84146101f1578063e566dcd114610208575b600080fd5b34801561008957600080fd5b50610112600480360381019080803573ffffffffffffffffffffffffffffffffffffffff169060200190929190803573ffffffffffffffffffffffffffffffffffffffff169060200190929190803573ffffffffffffffffffffffffffffffffffffffff169060200190929190803590602001909291908035906020019092919050505061024b565b005b34801561012057600080fd5b5061012961043d565b604051808273ffffffffffffffffffffffffffffffffffffffff1673ffffffffffffffffffffffffffffffffffffffff16815260200191505060405180910390f35b34801561017757600080fd5b506101ac600480360381019080803573ffffffffffffffffffffffffffffffffffffffff169060200190929190505050610462565b005b3480156101ba57600080fd5b506101ef600480360381019080803573ffffffffffffffffffffffffffffffffffffffff1690602001909291905050506108f3565b005b3480156101fd57600080fd5b50610206610a58565b005b34801561021457600080fd5b50610249600480360381019080803573ffffffffffffffffffffffffffffffffffffffff169060200190929190505050610be9565b005b83600260008773ffffffffffffffffffffffffffffffffffffffff1673ffffffffffffffffffffffffffffffffffffffff16815260200190815260200160002060000160016101000a81548173ffffffffffffffffffffffffffffffffffffffff021916908373ffffffffffffffffffffffffffffffffffffffff16021790555082600260008773ffffffffffffffffffffffffffffffffffffffff1673ffffffffffffffffffffffffffffffffffffffff16815260200190815260200160002060010160006101000a81548173ffffffffffffffffffffffffffffffffffffffff021916908373ffffffffffffffffffffffffffffffffffffffff16021790555081600260008773ffffffffffffffffffffffffffffffffffffffff1673ffffffffffffffffffffffffffffffffffffffff1681526020019081526020016000206002018190555080600260008773ffffffffffffffffffffffffffffffffffffffff1673ffffffffffffffffffffffffffffffffffffffff168152602001908152602001600020600301819055506000600260008773ffffffffffffffffffffffffffffffffffffffff1673ffffffffffffffffffffffffffffffffffffffff16815260200190815260200160002060000160006101000a81548160ff0219169083151502179055505050505050565b6000809054906101000a900473ffffffffffffffffffffffffffffffffffffffff1681565b803373ffffffffffffffffffffffffffffffffffffffff16600260008373ffffffffffffffffffffffffffffffffffffffff1673ffffffffffffffffffffffffffffffffffffffff16815260200190815260200160002060010160009054906101000a900473ffffffffffffffffffffffffffffffffffffffff1673ffffffffffffffffffffffffffffffffffffffff16141515610568576040517f08c379a00000000000000000000000000000000000000000000000000000000081526004018080602001828103825260208152602001807f4e6f7420706179656520696e20636f6e7472616374207265666572656e63656481525060200191505060405180910390fd5b60011515600260008473ffffffffffffffffffffffffffffffffffffffff1673ffffffffffffffffffffffffffffffffffffffff16815260200190815260200160002060000160009054906101000a900460ff161515141515610659576040517f08c379a00000000000000000000000000000000000000000000000000000000081526004018080602001828103825260258152602001807f436f6e7472616374206e6f7420617661696c61626c6520666f7220726564656d81526020017f7074696f6e00000000000000000000000000000000000000000000000000000081525060400191505060405180910390fd5b6001600260008473ffffffffffffffffffffffffffffffffffffffff1673ffffffffffffffffffffffffffffffffffffffff16815260200190815260200160002060040160006101000a81548160ff021916908315150217905550600160009054906101000a900473ffffffffffffffffffffffffffffffffffffffff1673ffffffffffffffffffffffffffffffffffffffff166323b872dd600260008573ffffffffffffffffffffffffffffffffffffffff1673ffffffffffffffffffffffffffffffffffffffff16815260200190815260200160002060000160019054906101000a900473ffffffffffffffffffffffffffffffffffffffff16600260008673ffffffffffffffffffffffffffffffffffffffff1673ffffffffffffffffffffffffffffffffffffffff16815260200190815260200160002060010160009054906101000a900473ffffffffffffffffffffffffffffffffffffffff16600260008773ffffffffffffffffffffffffffffffffffffffff1673ffffffffffffffffffffffffffffffffffffffff168152602001908152602001600020600201546040518463ffffffff167c0100000000000000000000000000000000000000000000000000000000028152600401808473ffffffffffffffffffffffffffffffffffffffff1673ffffffffffffffffffffffffffffffffffffffff1681526020018373ffffffffffffffffffffffffffffffffffffffff1673ffffffffffffffffffffffffffffffffffffffff1681526020018281526020019350505050602060405180830381600087803b1580156108b357600080fd5b505af11580156108c7573d6000803e3d6000fd5b505050506040513d60208110156108dd57600080fd5b8101908080519060200190929190505050505050565b803373ffffffffffffffffffffffffffffffffffffffff16600260008373ffffffffffffffffffffffffffffffffffffffff1673ffffffffffffffffffffffffffffffffffffffff16815260200190815260200160002060000160019054906101000a900473ffffffffffffffffffffffffffffffffffffffff1673ffffffffffffffffffffffffffffffffffffffff161415156109f9576040517f08c379a00000000000000000000000000000000000000000000000000000000081526004018080602001828103825260208152602001807f4e6f7420706179657220696e20636f6e7472616374207265666572656e63656481525060200191505060405180910390fd5b6001600260008473ffffffffffffffffffffffffffffffffffffffff1673ffffffffffffffffffffffffffffffffffffffff16815260200190815260200160002060000160006101000a81548160ff0219169083151502179055505050565b6000809054906101000a900473ffffffffffffffffffffffffffffffffffffffff1673ffffffffffffffffffffffffffffffffffffffff163373ffffffffffffffffffffffffffffffffffffffff16141515610b42576040517f08c379a00000000000000000000000000000000000000000000000000000000081526004018080602001828103825260228152602001807f63616c6c696e67206163636f756e74206973206e6f74206120637573746f646981526020017f616e00000000000000000000000000000000000000000000000000000000000081525060400191505060405180910390fd5b6000809054906101000a900473ffffffffffffffffffffffffffffffffffffffff1673ffffffffffffffffffffffffffffffffffffffff167f525cf161783c123505f5d7400f52b90131b5c6344d24e4ed962c62af88597c6c60405160405180910390a260008060006101000a81548173ffffffffffffffffffffffffffffffffffffffff021916908373ffffffffffffffffffffffffffffffffffffffff160217905550565b6000809054906101000a900473ffffffffffffffffffffffffffffffffffffffff1673ffffffffffffffffffffffffffffffffffffffff163373ffffffffffffffffffffffffffffffffffffffff16141515610cd3576040517f08c379a00000000000000000000000000000000000000000000000000000000081526004018080602001828103825260228152602001807f63616c6c696e67206163636f756e74206973206e6f74206120637573746f646981526020017f616e00000000000000000000000000000000000000000000000000000000000081525060400191505060405180910390fd5b600073ffffffffffffffffffffffffffffffffffffffff168173ffffffffffffffffffffffffffffffffffffffff1614151515610d9e576040517f08c379a00000000000000000000000000000000000000000000000000000000081526004018080602001828103825260328152602001807f63616c6c657220617474656d7074696e6720746f207472616e7366657220637581526020017f73746f647920746f2030206163636f756e74000000000000000000000000000081525060400191505060405180910390fd5b8073ffffffffffffffffffffffffffffffffffffffff166000809054906101000a900473ffffffffffffffffffffffffffffffffffffffff1673ffffffffffffffffffffffffffffffffffffffff167f3e9ec39125d31c584bb8210bcb65bd96bf94e77e13432f4a7eef459916ff1cff60405160405180910390a3806000806101000a81548173ffffffffffffffffffffffffffffffffffffffff021916908373ffffffffffffffffffffffffffffffffffffffff160217905550505600a165627a7a72305820277d3129749b8eb01b466e34e0925c062e21c3437d54d790fe8d0124b62d343a0029",
  "source": "pragma solidity 0.4.24;\nimport \"./custodial.sol\";\nimport \"zeppelin-solidity/contracts/token/ERC20/ERC20.sol\";\n\ncontract Escrow is Custodial {\n    ERC20 token;\n    struct Agreement  {\n        bool redeemable;\n        address payer;\n        address payee; \n        uint256 amount;\n        uint256 expiry;\n        bool settled;\n    }\n    mapping(address => Agreement) contracts;\n\n    constructor(ERC20 _token, address _custodian) public Custodial(_custodian) {\n        require(_custodian != 0x0, \"can not assigned 0x0 as custodian\");\n        token = _token;\n    }\n\n    modifier PayerOnly(address _contract) {\n        require(contracts[_contract].payer == msg.sender, \"Not payer in contract referenced\");\n        _;\n    }\n\n    modifier PayeeOnly(address _contract) {\n        require(contracts[_contract].payee == msg.sender, \"Not payee in contract referenced\");\n        _;\n    }\n\n    function createAgreement(address _contract, address _payer, address _payee, uint256 _amount, uint256 _expiry) public {\n        contracts[_contract].payer = _payer;\n        contracts[_contract].payee = _payee;\n        contracts[_contract].amount = _amount;\n        contracts[_contract].expiry = _expiry;\n        contracts[_contract].redeemable = false;\n    }\n\n    function makeRedeemable (address _contract) public PayerOnly(_contract)\n    {\n        contracts[_contract].redeemable = true;\n    }\n\n    function redeem (address _contract) public PayeeOnly(_contract)\n    {\n        require(contracts[_contract].redeemable == true, \"Contract not available for redemption\");\n        contracts[_contract].settled = true;\n        token.transferFrom(contracts[_contract].payer, contracts[_contract].payee, contracts[_contract].amount);\n    }\n}\n",
  "sourcePath": "/Users/ryanfisch/Code/cone/contracts/Escrow.sol",
  "compiler": {
    "name": "solc",
    "version": "0.4.24+commit.e67f0147.Emscripten.clang"
  },
  "schemaVersion": "2.0.1",
  "updatedAt": "2018-10-13T17:13:18.118Z"
}