{
  "contractName": "StandardPayment",
  "abi": [
    {
      "constant": true,
      "inputs": [],
      "name": "payer",
      "outputs": [
        {
          "name": "",
          "type": "address"
        }
      ],
      "payable": false,
      "stateMutability": "view",
      "type": "function"
    },
    {
      "constant": true,
      "inputs": [],
      "name": "status",
      "outputs": [
        {
          "name": "",
          "type": "uint8"
        }
      ],
      "payable": false,
      "stateMutability": "view",
      "type": "function"
    },
    {
      "constant": true,
      "inputs": [],
      "name": "custodian",
      "outputs": [
        {
          "name": "",
          "type": "address"
        }
      ],
      "payable": false,
      "stateMutability": "view",
      "type": "function"
    },
    {
      "constant": true,
      "inputs": [],
      "name": "value",
      "outputs": [
        {
          "name": "",
          "type": "uint256"
        }
      ],
      "payable": false,
      "stateMutability": "view",
      "type": "function"
    },
    {
      "constant": true,
      "inputs": [],
      "name": "payee",
      "outputs": [
        {
          "name": "",
          "type": "address"
        }
      ],
      "payable": false,
      "stateMutability": "view",
      "type": "function"
    },
    {
      "constant": false,
      "inputs": [],
      "name": "renounceCustody",
      "outputs": [],
      "payable": false,
      "stateMutability": "nonpayable",
      "type": "function"
    },
    {
      "constant": false,
      "inputs": [
        {
          "name": "_newCustodian",
          "type": "address"
        }
      ],
      "name": "transferCustody",
      "outputs": [],
      "payable": false,
      "stateMutability": "nonpayable",
      "type": "function"
    },
    {
      "constant": true,
      "inputs": [],
      "name": "currency",
      "outputs": [
        {
          "name": "",
          "type": "address"
        }
      ],
      "payable": false,
      "stateMutability": "view",
      "type": "function"
    },
    {
      "inputs": [
        {
          "name": "_currency",
          "type": "address"
        },
        {
          "name": "_payer",
          "type": "address"
        },
        {
          "name": "_payee",
          "type": "address"
        },
        {
          "name": "_value",
          "type": "uint256"
        },
        {
          "name": "_custodian",
          "type": "address"
        }
      ],
      "payable": false,
      "stateMutability": "nonpayable",
      "type": "constructor"
    },
    {
      "anonymous": false,
      "inputs": [
        {
          "indexed": true,
          "name": "previousCustodian",
          "type": "address"
        }
      ],
      "name": "CustodyRenounced",
      "type": "event"
    },
    {
      "anonymous": false,
      "inputs": [
        {
          "indexed": true,
          "name": "previousCustodian",
          "type": "address"
        },
        {
          "indexed": true,
          "name": "newCustodian",
          "type": "address"
        }
      ],
      "name": "CustodyTransferred",
      "type": "event"
    },
    {
      "constant": false,
      "inputs": [
        {
          "name": "_value",
          "type": "uint256"
        }
      ],
      "name": "deposit",
      "outputs": [],
      "payable": false,
      "stateMutability": "nonpayable",
      "type": "function"
    },
    {
      "constant": false,
      "inputs": [
        {
          "name": "_value",
          "type": "uint256"
        }
      ],
      "name": "dispute",
      "outputs": [],
      "payable": false,
      "stateMutability": "nonpayable",
      "type": "function"
    },
    {
      "constant": false,
      "inputs": [],
      "name": "approvalFullWithdrawal",
      "outputs": [],
      "payable": false,
      "stateMutability": "nonpayable",
      "type": "function"
    },
    {
      "constant": false,
      "inputs": [
        {
          "name": "_payerRefund",
          "type": "uint256"
        },
        {
          "name": "_payeeRefund",
          "type": "uint256"
        }
      ],
      "name": "refund",
      "outputs": [],
      "payable": false,
      "stateMutability": "nonpayable",
      "type": "function"
    },
    {
      "constant": false,
      "inputs": [],
      "name": "fullWithdraw",
      "outputs": [],
      "payable": false,
      "stateMutability": "nonpayable",
      "type": "function"
    }
  ],
  "bytecode": "0x608060405234801561001057600080fd5b5060405160a080611fd8833981018060405281019080805190602001909291908051906020019092919080519060200190929190805190602001909291908051906020019092919050505080806000806101000a81548173ffffffffffffffffffffffffffffffffffffffff021916908373ffffffffffffffffffffffffffffffffffffffff1602179055505060008473ffffffffffffffffffffffffffffffffffffffff161415151561012c576040517f08c379a00000000000000000000000000000000000000000000000000000000081526004018080602001828103825260158152602001807f496e76616c69642070617965722061646472657373000000000000000000000081525060200191505060405180910390fd5b60008373ffffffffffffffffffffffffffffffffffffffff16141515156101bb576040517f08c379a00000000000000000000000000000000000000000000000000000000081526004018080602001828103825260158152602001807f496e76616c69642070617965652061646472657373000000000000000000000081525060200191505060405180910390fd5b600082111515610259576040517f08c379a00000000000000000000000000000000000000000000000000000000081526004018080602001828103825260238152602001807f657363726f772076616c7565206d75737420626520677265617465722074686181526020017f6e2030000000000000000000000000000000000000000000000000000000000081525060400191505060405180910390fd5b84600160006101000a81548173ffffffffffffffffffffffffffffffffffffffff021916908373ffffffffffffffffffffffffffffffffffffffff16021790555083600260006101000a81548173ffffffffffffffffffffffffffffffffffffffff021916908373ffffffffffffffffffffffffffffffffffffffff16021790555082600360006101000a81548173ffffffffffffffffffffffffffffffffffffffff021916908373ffffffffffffffffffffffffffffffffffffffff160217905550816004819055506000600660006101000a81548160ff0219169083600381111561034257fe5b02179055505050505050611c7d8061035b6000396000f3006080604052600436106100c5576000357c0100000000000000000000000000000000000000000000000000000000900463ffffffff16806302395488146100ca578063123119cd146100e1578063200d2ed214610138578063375b74c3146101715780633fa4f245146101c85780635af36e3e146101f357806386d6282c1461022a578063ae90b21314610257578063b6b55f25146102ae578063cdd8dd84146102db578063e566dcd1146102f2578063e5a6b10f14610335578063fa914ed51461038c575b600080fd5b3480156100d657600080fd5b506100df6103a3565b005b3480156100ed57600080fd5b506100f6610551565b604051808273ffffffffffffffffffffffffffffffffffffffff1673ffffffffffffffffffffffffffffffffffffffff16815260200191505060405180910390f35b34801561014457600080fd5b5061014d610577565b6040518082600381111561015d57fe5b60ff16815260200191505060405180910390f35b34801561017d57600080fd5b5061018661058a565b604051808273ffffffffffffffffffffffffffffffffffffffff1673ffffffffffffffffffffffffffffffffffffffff16815260200191505060405180910390f35b3480156101d457600080fd5b506101dd6105af565b6040518082815260200191505060405180910390f35b3480156101ff57600080fd5b5061022860048036038101908080359060200190929190803590602001909291905050506105b5565b005b34801561023657600080fd5b5061025560048036038101908080359060200190929190505050610c8b565b005b34801561026357600080fd5b5061026c6110f0565b604051808273ffffffffffffffffffffffffffffffffffffffff1673ffffffffffffffffffffffffffffffffffffffff16815260200191505060405180910390f35b3480156102ba57600080fd5b506102d960048036038101908080359060200190929190505050611116565b005b3480156102e757600080fd5b506102f061138b565b005b3480156102fe57600080fd5b50610333600480360381019080803573ffffffffffffffffffffffffffffffffffffffff16906020019092919050505061151c565b005b34801561034157600080fd5b5061034a61178f565b604051808273ffffffffffffffffffffffffffffffffffffffff1673ffffffffffffffffffffffffffffffffffffffff16815260200191505060405180910390f35b34801561039857600080fd5b506103a16117b5565b005b3373ffffffffffffffffffffffffffffffffffffffff16600260009054906101000a900473ffffffffffffffffffffffffffffffffffffffff1673ffffffffffffffffffffffffffffffffffffffff16141515610468576040517f08c379a00000000000000000000000000000000000000000000000000000000081526004018080602001828103825260208152602001807f4e6f7420706179657220696e20636f6e7472616374207265666572656e63656481525060200191505060405180910390fd5b6000600381111561047557fe5b600660009054906101000a900460ff16600381111561049057fe5b14151561052b576040517f08c379a00000000000000000000000000000000000000000000000000000000081526004018080602001828103825260358152602001807f457363726f7720696e20696e76616c696420737461746520666f722066756c6c81526020017f20776964746864726177616c20617070726f76616c000000000000000000000081525060400191505060405180910390fd5b6002600660006101000a81548160ff0219169083600381111561054a57fe5b0217905550565b600260009054906101000a900473ffffffffffffffffffffffffffffffffffffffff1681565b600660009054906101000a900460ff1681565b6000809054906101000a900473ffffffffffffffffffffffffffffffffffffffff1681565b60045481565b60008060009054906101000a900473ffffffffffffffffffffffffffffffffffffffff1673ffffffffffffffffffffffffffffffffffffffff163373ffffffffffffffffffffffffffffffffffffffff161415156106a1576040517f08c379a00000000000000000000000000000000000000000000000000000000081526004018080602001828103825260228152602001807f63616c6c696e67206163636f756e74206973206e6f74206120637573746f646981526020017f616e00000000000000000000000000000000000000000000000000000000000081525060400191505060405180910390fd5b6106b48284611c3590919063ffffffff16565b9050600160038111156106c357fe5b600660009054906101000a900460ff1660038111156106de57fe5b14151561079f576040517f08c379a00000000000000000000000000000000000000000000000000000000081526004018080602001828103825260418152602001807f436f6e7472616374206973206e6f7420696e206120646973707574656420737481526020017f61746520666f7220637573746f6469616e20746f20697373756520726566756e81526020017f640000000000000000000000000000000000000000000000000000000000000081525060600191505060405180910390fd5b8060055410151515610819576040517f08c379a000000000000000000000000000000000000000000000000000000000815260040180806020018281038252601c8152602001807f526566756e64206578656564732064697370757465642076616c75650000000081525060200191505060405180910390fd5b80600160009054906101000a900473ffffffffffffffffffffffffffffffffffffffff1673ffffffffffffffffffffffffffffffffffffffff166370a08231306040518263ffffffff167c0100000000000000000000000000000000000000000000000000000000028152600401808273ffffffffffffffffffffffffffffffffffffffff1673ffffffffffffffffffffffffffffffffffffffff168152602001915050602060405180830381600087803b1580156108d757600080fd5b505af11580156108eb573d6000803e3d6000fd5b505050506040513d602081101561090157600080fd5b8101908080519060200190929190505050101515156109ae576040517f08c379a00000000000000000000000000000000000000000000000000000000081526004018080602001828103825260318152602001807f526566756e642076616c756520657863656564732074686520617661696c616281526020017f6c6520657363726f772062616c616e636500000000000000000000000000000081525060400191505060405180910390fd5b600060038111156109bb57fe5b600660009054906101000a900460ff1660038111156109d657fe5b5050600160009054906101000a900473ffffffffffffffffffffffffffffffffffffffff1673ffffffffffffffffffffffffffffffffffffffff166323b872dd30600260009054906101000a900473ffffffffffffffffffffffffffffffffffffffff16866040518463ffffffff167c0100000000000000000000000000000000000000000000000000000000028152600401808473ffffffffffffffffffffffffffffffffffffffff1673ffffffffffffffffffffffffffffffffffffffff1681526020018373ffffffffffffffffffffffffffffffffffffffff1673ffffffffffffffffffffffffffffffffffffffff1681526020018281526020019350505050602060405180830381600087803b158015610af357600080fd5b505af1158015610b07573d6000803e3d6000fd5b505050506040513d6020811015610b1d57600080fd5b810190808051906020019092919050505050600160009054906101000a900473ffffffffffffffffffffffffffffffffffffffff1673ffffffffffffffffffffffffffffffffffffffff166323b872dd30600360009054906101000a900473ffffffffffffffffffffffffffffffffffffffff16856040518463ffffffff167c0100000000000000000000000000000000000000000000000000000000028152600401808473ffffffffffffffffffffffffffffffffffffffff1673ffffffffffffffffffffffffffffffffffffffff1681526020018373ffffffffffffffffffffffffffffffffffffffff1673ffffffffffffffffffffffffffffffffffffffff1681526020018281526020019350505050602060405180830381600087803b158015610c4a57600080fd5b505af1158015610c5e573d6000803e3d6000fd5b505050506040513d6020811015610c7457600080fd5b810190808051906020019092919050505050505050565b3373ffffffffffffffffffffffffffffffffffffffff16600260009054906101000a900473ffffffffffffffffffffffffffffffffffffffff1673ffffffffffffffffffffffffffffffffffffffff16141515610d50576040517f08c379a00000000000000000000000000000000000000000000000000000000081526004018080602001828103825260208152602001807f4e6f7420706179657220696e20636f6e7472616374207265666572656e63656481525060200191505060405180910390fd5b6000600554141515610dca576040517f08c379a00000000000000000000000000000000000000000000000000000000081526004018080602001828103825260188152602001807f7072696f72206469737075746520756e7265736f6c766564000000000000000081525060200191505060405180910390fd5b60006003811115610dd757fe5b600660009054906101000a900460ff166003811115610df257fe5b141515610e8d576040517f08c379a000000000000000000000000000000000000000000000000000000000815260040180806020018281038252602b8152602001807f457363726f77206973206e6f7420696e20616e2061637469766520737461746581526020017f20746f206469737075746500000000000000000000000000000000000000000081525060400191505060405180910390fd5b8060045410151515610f2d576040517f08c379a00000000000000000000000000000000000000000000000000000000081526004018080602001828103825260308152602001807f44697370757465642076616c7565206578636565647320746865206f7269676981526020017f6e616c20657363726f772076616c75650000000000000000000000000000000081525060400191505060405180910390fd5b80600160009054906101000a900473ffffffffffffffffffffffffffffffffffffffff1673ffffffffffffffffffffffffffffffffffffffff166370a08231306040518263ffffffff167c0100000000000000000000000000000000000000000000000000000000028152600401808273ffffffffffffffffffffffffffffffffffffffff1673ffffffffffffffffffffffffffffffffffffffff168152602001915050602060405180830381600087803b158015610feb57600080fd5b505af1158015610fff573d6000803e3d6000fd5b505050506040513d602081101561101557600080fd5b8101908080519060200190929190505050101515156110c2576040517f08c379a00000000000000000000000000000000000000000000000000000000081526004018080602001828103825260338152602001807f44697370757465642076616c756520657863656564732074686520617661696c81526020017f61626c6520657363726f772062616c616e63650000000000000000000000000081525060400191505060405180910390fd5b806005819055506001600660006101000a81548160ff021916908360038111156110e857fe5b021790555050565b600360009054906101000a900473ffffffffffffffffffffffffffffffffffffffff1681565b3373ffffffffffffffffffffffffffffffffffffffff16600260009054906101000a900473ffffffffffffffffffffffffffffffffffffffff1673ffffffffffffffffffffffffffffffffffffffff161415156111db576040517f08c379a00000000000000000000000000000000000000000000000000000000081526004018080602001828103825260208152602001807f4e6f7420706179657220696e20636f6e7472616374207265666572656e63656481525060200191505060405180910390fd5b600081111515611253576040517f08c379a00000000000000000000000000000000000000000000000000000000081526004018080602001828103825260108152602001807f496e76616c6964206465706f736974790000000000000000000000000000000081525060200191505060405180910390fd5b600160009054906101000a900473ffffffffffffffffffffffffffffffffffffffff1673ffffffffffffffffffffffffffffffffffffffff166323b872dd3330846040518463ffffffff167c0100000000000000000000000000000000000000000000000000000000028152600401808473ffffffffffffffffffffffffffffffffffffffff1673ffffffffffffffffffffffffffffffffffffffff1681526020018373ffffffffffffffffffffffffffffffffffffffff1673ffffffffffffffffffffffffffffffffffffffff1681526020018281526020019350505050602060405180830381600087803b15801561134c57600080fd5b505af1158015611360573d6000803e3d6000fd5b505050506040513d602081101561137657600080fd5b81019080805190602001909291905050505050565b6000809054906101000a900473ffffffffffffffffffffffffffffffffffffffff1673ffffffffffffffffffffffffffffffffffffffff163373ffffffffffffffffffffffffffffffffffffffff16141515611475576040517f08c379a00000000000000000000000000000000000000000000000000000000081526004018080602001828103825260228152602001807f63616c6c696e67206163636f756e74206973206e6f74206120637573746f646981526020017f616e00000000000000000000000000000000000000000000000000000000000081525060400191505060405180910390fd5b6000809054906101000a900473ffffffffffffffffffffffffffffffffffffffff1673ffffffffffffffffffffffffffffffffffffffff167f525cf161783c123505f5d7400f52b90131b5c6344d24e4ed962c62af88597c6c60405160405180910390a260008060006101000a81548173ffffffffffffffffffffffffffffffffffffffff021916908373ffffffffffffffffffffffffffffffffffffffff160217905550565b6000809054906101000a900473ffffffffffffffffffffffffffffffffffffffff1673ffffffffffffffffffffffffffffffffffffffff163373ffffffffffffffffffffffffffffffffffffffff16141515611606576040517f08c379a00000000000000000000000000000000000000000000000000000000081526004018080602001828103825260228152602001807f63616c6c696e67206163636f756e74206973206e6f74206120637573746f646981526020017f616e00000000000000000000000000000000000000000000000000000000000081525060400191505060405180910390fd5b600073ffffffffffffffffffffffffffffffffffffffff168173ffffffffffffffffffffffffffffffffffffffff16141515156116d1576040517f08c379a00000000000000000000000000000000000000000000000000000000081526004018080602001828103825260328152602001807f63616c6c657220617474656d7074696e6720746f207472616e7366657220637581526020017f73746f647920746f2030206163636f756e74000000000000000000000000000081525060400191505060405180910390fd5b8073ffffffffffffffffffffffffffffffffffffffff166000809054906101000a900473ffffffffffffffffffffffffffffffffffffffff1673ffffffffffffffffffffffffffffffffffffffff167f3e9ec39125d31c584bb8210bcb65bd96bf94e77e13432f4a7eef459916ff1cff60405160405180910390a3806000806101000a81548173ffffffffffffffffffffffffffffffffffffffff021916908373ffffffffffffffffffffffffffffffffffffffff16021790555050565b600160009054906101000a900473ffffffffffffffffffffffffffffffffffffffff1681565b60003373ffffffffffffffffffffffffffffffffffffffff16600360009054906101000a900473ffffffffffffffffffffffffffffffffffffffff1673ffffffffffffffffffffffffffffffffffffffff1614151561187c576040517f08c379a00000000000000000000000000000000000000000000000000000000081526004018080602001828103825260208152602001807f4e6f7420706179656520696e20636f6e7472616374207265666572656e63656481525060200191505060405180910390fd5b600060055414151561191c576040517f08c379a000000000000000000000000000000000000000000000000000000000815260040180806020018281038252602a8152602001807f43616e6e6f742077696474686472617720756e74696c2064697370757465206981526020017f73207265736f6c7665640000000000000000000000000000000000000000000081525060400191505060405180910390fd5b6002600381111561192957fe5b600660009054906101000a900460ff16600381111561194457fe5b1415156119df576040517f08c379a000000000000000000000000000000000000000000000000000000000815260040180806020018281038252602e8152602001807f457363726f77206973206e6f7420696e20617070726f7665642073746174652081526020017f666f72207769746864726177616c00000000000000000000000000000000000081525060400191505060405180910390fd5b600160009054906101000a900473ffffffffffffffffffffffffffffffffffffffff1673ffffffffffffffffffffffffffffffffffffffff166370a08231306040518263ffffffff167c0100000000000000000000000000000000000000000000000000000000028152600401808273ffffffffffffffffffffffffffffffffffffffff1673ffffffffffffffffffffffffffffffffffffffff168152602001915050602060405180830381600087803b158015611a9c57600080fd5b505af1158015611ab0573d6000803e3d6000fd5b505050506040513d6020811015611ac657600080fd5b81019080805190602001909291905050509050600160009054906101000a900473ffffffffffffffffffffffffffffffffffffffff1673ffffffffffffffffffffffffffffffffffffffff166323b872dd3033846040518463ffffffff167c0100000000000000000000000000000000000000000000000000000000028152600401808473ffffffffffffffffffffffffffffffffffffffff1673ffffffffffffffffffffffffffffffffffffffff1681526020018373ffffffffffffffffffffffffffffffffffffffff1673ffffffffffffffffffffffffffffffffffffffff1681526020018281526020019350505050602060405180830381600087803b158015611bd257600080fd5b505af1158015611be6573d6000803e3d6000fd5b505050506040513d6020811015611bfc57600080fd5b8101908080519060200190929190505050506003600660006101000a81548160ff02191690836003811115611c2d57fe5b021790555050565b60008183019050828110151515611c4857fe5b809050929150505600a165627a7a723058206906f07cfcae2276fea9a7fcf5f07f7da12be84bd2384c35949678d5d3015ee30029",
  "source": "pragma solidity 0.4.24;\nimport \"./custodial.sol\";\nimport \"./IPayment.sol\";\nimport \"zeppelin-solidity/contracts/token/ERC20/ERC20.sol\";\nimport \"zeppelin-solidity/contracts/math/Safemath.sol\";\n\ncontract StandardPayment is IPayment, Custodial {\n    \n    enum PaymentStatus {Active, InDispute, Approved, Settled}\n\n    using SafeMath for uint256;\n    ERC20 public currency;\n    address public payer;\n    address public payee;\n    uint256 public value;\n    uint256 disputeValue;\n    PaymentStatus public status;\n\n    modifier PayerOnly() {\n        require(payer == msg.sender, \"Not payer in contract referenced\");\n        _;\n    }\n\n    modifier PayeeOnly() {\n        require(payee == msg.sender, \"Not payee in contract referenced\");\n        _;\n    }\n    \n    constructor(ERC20 _currency, address _payer, address _payee, uint256 _value, address _custodian) Custodial(_custodian) public {\n        require(_payer != 0x0, \"Invalid payer address\");\n        require(_payee != 0x0, \"Invalid payee address\");\n        require(_value > 0, \"escrow value must be greater than 0\");\n\n        currency = _currency;\n        payer = _payer;\n        payee = _payee;\n        value = _value;\n        status = PaymentStatus.Active;\n    }\n\n    function deposit(uint256 _value) public PayerOnly()\n    {\n        require(_value > 0, \"Invalid deposity\");\n        currency.transferFrom(msg.sender, address(this), _value);\n    }\n        \n    function dispute(uint256 _value) public PayerOnly {\n        require(disputeValue == 0, \"prior dispute unresolved\");\n        require(status == PaymentStatus.Active, \"Escrow is not in an active state to dispute\");\n        require(value >= _value, \"Disputed value exceeds the original escrow value\");\n        require(currency.balanceOf(address(this)) >= _value, \"Disputed value exceeds the available escrow balance\");\n        \n        disputeValue = _value;\n        status = PaymentStatus.InDispute;\n        //TODO: raise event\n    }\n\n    function approvalFullWithdrawal() public PayerOnly {\n        require(status == PaymentStatus.Active, \"Escrow in invalid state for full widthdrawal approval\");\n        status = PaymentStatus.Approved;\n        //TODO: raise event;\n    }\n\n    function refund(uint256 _payerRefund, uint256 _payeeRefund) public onlyCustodian{\n\n        ///TODO: Add additinal value for split refund \n        uint256 totalRefund = _payerRefund.add(_payeeRefund);\n        require(status == PaymentStatus.InDispute, \"Contract is not in a disputed state for custodian to issue refund\");\n        require(disputeValue >= totalRefund, \"Refund exeeds disputed value\");\n        require(currency.balanceOf(address(this)) >= totalRefund, \"Refund value exceeds the available escrow balance\");\n\n        disputeValue == 0;\n        status == PaymentStatus.Active;\n\n        currency.transferFrom(address(this), payer, _payerRefund);\n        currency.transferFrom(address(this), payee, _payeeRefund);\n\n        //rase event with refund and dispute values to idicate full or partial refund.\n    }\n    \n    function fullWithdraw() public PayeeOnly {\n        require(disputeValue == 0, \"Cannot widthdraw until dispute is resolved\");\n        require(status == PaymentStatus.Approved, \"Escrow is not in approved state for withdrawal\");\n        uint256 escrowBalance = currency.balanceOf(address(this));\n        currency.transferFrom(address(this), msg.sender, escrowBalance);\n        status = PaymentStatus.Settled;\n        //TODO: Raise event that escrow is settled\n    }\n}\n",
  "sourcePath": "/Users/ryanfisch/Code/cone/contracts/StandardPayment.sol",
  "compiler": {
    "name": "solc",
    "version": "0.4.24+commit.e67f0147.Emscripten.clang"
  },
  "schemaVersion": "2.0.1",
  "updatedAt": "2018-10-16T01:54:55.977Z"
}